:100000000C943E000C945D000C945B000C945B001F
:100010000C945B000C945B000C945B000C945B00F4
:100020000C945B000C945B000C945B000C945B00E4
:100030000C945B000C945B000C945B000C945B00D4
:100040000C945B000C945B000C945B000C945B00C4
:100050000C945B000C945B000C945B000C945B00B4
:100060000C945B000C945B000C945B000C945B00A4
:100070000C945B000C945B000C945B0011241FBE7D
:10008000CFEFD8E0DEBFCDBF11E0A0E0B1E0EAE401
:10009000FAE102C005900D92AC3AB107D9F721E020
:1000A000ACEAB1E001C01D92AD3AB207E1F70E949F
:1000B000B0070C94230D0C9400001F921FB61F92E2
:1000C00011248F939F938FE59AEE0197F1F700C06B
:1000D00000004A9B09C081E08093AC019F918F9101
:1000E0001F901FBE1F9018951092AC01F7CF0F9371
:1000F000CF93DF93EC010E943204CE0146960E941A
:100100007B02CE0147960E940C05CE0148960E94C4
:10011000900103E022E041E250E062E270E0CE01B3
:100120008C539F4F0E940D01CE0188539F4FDF914A
:10013000CF910F910C940B011F93CF93DF9313E09A
:10014000EC01689642E350E060E570E0CE010E9469
:10015000D901CE010E9472022FE788E391E021507D
:1001600080409040E1F700C00000115059F7DF9146
:10017000CF911F9108951F93CF93DF931FE0EC0160
:10018000CC53DF4FCE010E9445012FEF80E792E074
:10019000215080409040E1F700C00000CE010E9455
:1001A00078012FEF80E792E0215080409040E1F706
:1001B00000C00000115031F7DF91CF911F910895D9
:1001C000CF93DF93FB01DC01A753BF4F9B012A5F55
:1001D0003F4F8191829587708C93EF018A9186952C
:1001E0008695837011968C931197888183701296EF
:1001F0008C9312971396E217F30759F7DF91CF917B
:100200000895F8945298E89AE9E6F0E080818160D8
:100210008083789408950C9401010F93DC01FA0116
:1002200011967C936E9312962C93129713960C93BF
:10023000308181E090E0AC0101C0440F0A95EAF7FB
:10024000342B3083308101C0880F2A95EAF7832B45
:1002500080830F910895FC01A081B1812C9132819E
:1002600081E090E0AC0101C0440F3A95EAF7242BFD
:100270002C93A081B1812C91338101C0880F3A95D4
:10028000EAF7809582238C930895FC01A081B181C7
:100290002C91338181E090E0AC0101C0440F3A958C
:1002A000EAF7242B2C93A081B1812C91328101C0DB
:1002B000880F3A95EAF7809582238C930895CF931F
:1002C000DF93D82FC92F0E9445018FE097E2019755
:1002D000F1F700C000008D2F9C2F0E942B018FE0B2
:1002E00097E20197F1F700C00000DF91CF910895E8
:1002F000FC01A081B1814C91838121E030E0B90102
:1003000002C0660F771F8A95E2F7CB01928101C088
:10031000220F9A95EAF7822B809584238C93089577
:10032000CF93DF93EC018DE2888380E094E09A83A1
:10033000898384E9E0E0F1E0DE01139601900D92FB
:100340008A95E1F7DE01A956BF4F8AE0E4E9F1E0C2
:1003500001900D928A95E1F7DE01AF55BF4F8AE01B
:10036000EEE9F1E001900D928A95E1F7C555DF4F76
:1003700085E088838AB1806C8AB9DF91CF91089536
:10038000CA01DB010097A105B10591F040E050E002
:10039000BA01EFECF7E03197F1F700C000004F5FD2
:1003A0005F4F6F4F7F4F84179507A607B70789F7F1
:1003B0000895EF92FF920F931F93CF93DF9300D096
:1003C00000D000D0CDB7DEB78C017A01FC0180816E
:1003D0009B01281B3109220F331F220F331F200FCF
:1003E000311F3E832D8381819281880F991F9C014B
:1003F00050E040E029833A834B835C83CA01B90112
:100400000E945709ED81FE81238134814581568107
:1004100069837A838B839C8369817A818B819C81B8
:100420000E94E5099B01AC0160E074E284EF9AE46C
:100430000E94B60820E030E040E85FE369837A83F9
:100440008B839C8369817A818B819C810E9449087E
:1004500069837A838B839C8369817A818B819C8178
:100460000E9428096093B300E0EBF0E08081826491
:100470008083E1EBF0E0808187608083A70170E0FA
:1004800060E0C80126960FB6F894DEBF0FBECDBF60
:10049000DF91CF911F910F91FF90EF900C94C001CD
:1004A000EF92FF920F931F93CF93DF93EC018C0198
:1004B00009561F4F7C0181EAE80EF11CF8010E5F1E
:1004C0001F4F4285538560817181CE010E94D90101
:1004D0000E151F0599F7DF91CF911F910F91FF9096
:1004E000EF900895E1EBF0E010821092B3001092CB
:1004F000B00010820895F8940F98559AE0E8F0E063
:10050000808183608083808180658083E1E8F0E082
:1005100080818160808380818861808310928900DE
:10052000109288007894089588E690E0909389006E
:100530008093880008951092890010928800089591
:100540001092800010928100109289001092880011
:100550000895E8E8F0E088E690E0918380838FEBEF
:1005600092E10197F1F700C00000118210828FEA3A
:1005700094E00197F1F700C00000089588E690E04C
:100580009093890080938800662389F08FE599E035
:100590000197F1F700C000001092890010928800C6
:1005A0008FEA94E00197F1F700C0000008958FEA08
:1005B00094E00197F1F7EECFCF92DF92FF920F9385
:1005C0001F93CF93DF938C01F62ED0E0C0E0CC24B4
:1005D000C394D12CC6010C2E01C0880F0A94EAF7EF
:1005E0008F2161E009F460E0C8010E94BE022196FB
:1005F000C830D10579F7DF91CF911F910F91FF900E
:10060000DF90CF9008950C94DC020F931F93CF934B
:10061000DF93D82FC92F162F00E0062788E09CE82B
:10062000069508F409278A95D9F78D2F9C2F0E94EB
:10063000A902612F8D2F9C2F0E94DC028D2F9C2FF1
:100640000E94A902602F8D2F9C2F0E94DC028D2F0B
:100650009C2FDF91CF911F910F910C94A9020F93C2
:100660001F93CF93DF93182FD92F062F2FEF89E6F3
:1006700098E1215080409040E1F700C00000C5E0C3
:10068000602F812F9D2F0E940503C150C9F7DF9174
:10069000CF911F910F910895EF92FF920F931F93A7
:1006A000CF93DF938C01EB017B0186E0E80EF11C18
:1006B0006991C8010E942F03CE15DF05C9F7DF91AC
:1006C000CF911F910F91FF90EF90089580B1809589
:1006D000881F8827881F089580E007990895E7EC10
:1006E000F0E03197F1F700C000008F5FF6CF70E0C7
:1006F00050E0CA0103976817790734F04D5F5F4FE8
:1007000081E0461757070CF480E00895EF92FF92BE
:100710000F931F93CF93DF93182F092F079B13C0BD
:10072000C0E08C2FDF91CF911F910F91FF90EF9040
:1007300008950799FECF8551873038F0812F902F8B
:100740000E946C03F6CF80E0F6CFD0E0C0E0EE244C
:10075000E394F12C812F902F0E946C03282F30E01E
:10076000233031055CF02A3031057CF497010D2EE1
:1007700001C0220F0A94EAF72095C2230799FECF01
:10078000DF5F8551873030F7CCCF20313105B4F7AA
:1007900097010D2E01C0220F0A94EAF7C22BEECF6B
:1007A0000F931F93CF93DF938C010E948603C82F72
:1007B000D0E0DC2FCC27C8010E9486039E01282BA5
:1007C000C901DF91CF911F910F910895FB01908195
:1007D00080E0892798E02CE8869508F482279A958E
:1007E000D9F79181892798E02CE8869508F482272B
:1007F0009A95D9F70895AF92BF92DF92EF92FF9248
:100800000F931F93CF93DF9300D0CDB7DEB7E82EC1
:10081000D92E8B015B0186E0A80EB11C8E2D9D2D7B
:100820000E94D003F82E89839A83BE016F5F7F4FA9
:100830008E2D9D2D0E94E6038111F0CFFF2071F3D4
:10084000F801F1928F01EA15FB0541F70F900F9027
:10085000DF91CF911F910F91FF90EF90DF90BF90AC
:10086000AF9008950F931F93CF93DF93EC010E94F5
:100870000D05CE0101960E944D070AE919E929E507
:100880003FE340E050E060E87FE3CE0103960E9442
:100890005B051B8A82E08C8B83E28D8BDF91CF918D
:1008A0001F910F910895CF92DF92EF92FF920F93D5
:1008B0001F93CF93DF93EC018B01D12CC12CF12C32
:1008C000E12CC016D106A4F0C701B8010E9435087A
:1008D0008B01CE0101960E943F07C8019927DF9145
:1008E000CF911F910F91FF90EF90DF90CF900895DF
:1008F00060E0CE010E9416052C8902C0969587956E
:100900002A95E2F7E80EF91E8FEFC81AD80AD9CF58
:100910000E9453049C0181E02332310509F080E0FC
:100920000895CF92DF92EF92FF920F931F93CF9390
:10093000DF937C016B01EC01239611E0B601C70146
:100940000E948804882309F441C0CE010E94300629
:10095000CE010E94280644E650E060E070E0CE013F
:100960000E94F905FFEF21EE84E0F1502040804025
:10097000E1F700C00000F7018389882399F0CE01D8
:100980000E94280646E950E060E070E0CE010E9437
:10099000F905FFEF26E181E1F15020408040E1F7C9
:1009A00000C00000CE010E942C06B601C7010E94C3
:1009B000530447972CF5CE01DF91CF911F910F91F2
:1009C000FF90EF90DF90CF900C943006B601C701F6
:1009D0000E945304F7012589281719066CF4CE01EB
:1009E0000E942C06F701138B46E950E060E070E0AE
:1009F000CE010E94F905A2CFCE010E942806F4CFB5
:100A000001E010E020E030E049E650E060E070E016
:100A1000CE010E94A005C9CF089510927C0086E8FF
:100A200080937A00089510927A00089580917C0056
:100A3000807E80937C0080917C006770682B60933F
:100A40007C0080917A00806480937A0080917A00A3
:100A500084FFFCCF80917A00806180937A0020919E
:100A600078008091790090E0982F8827820F911D5F
:100A70000895FC0180E090E0A0E8BFE380879187C3
:100A8000A287B38784879587A687B78784B5816A4D
:100A900084BD85B5826085BD84B1886184B984B127
:100AA000846284B9108211821282138214821582A8
:100AB000168217820895AF92BF92CF92DF92EF9283
:100AC000FF920F931F93CF93DF93EC015A016B01B9
:100AD00079010E943905C501D60188879987AA87BF
:100AE000BB87C801D7018C879D87AE87BF87DF9101
:100AF000CF911F910F91FF90EF90DF90CF90BF901B
:100B0000AF90089514BC15BC17BC18BC0895CA0159
:100B1000DB010097A105B10591F040E050E0BA017A
:100B2000EFECF7E03197F1F700C000004F5F5F4F47
:100B30006F4F7F4F84179507A607B70789F708956A
:100B4000EF92FF920F931F93CF93DF9300D000D0CB
:100B500000D0CDB7DEB78D839E83CB01BA0179017A
:100B60000E945709ED81FE8120853185428553859C
:100B700069837A838B839C8369817A818B819C8151
:100B80000E94E50969837A838B839C8369817A81DA
:100B90008B819C810E94280967BDB801C7010E9412
:100BA0005709ED81FE812485358546855785698302
:100BB0007A838B839C8369817A818B819C810E945B
:100BC000E50969837A838B839C8369817A818B8130
:100BD0009C810E94280968BD26960FB6F894DEBF56
:100BE0000FBECDBFDF91CF911F910F91FF90EF907E
:100BF00008950F931F93FC014F3F51056105710547
:100C000029F020F04FEF50E060E070E04083518326
:100C10006283738344835583668377838A019B0150
:100C2000CF010E94A0051F910F9108950F931F936C
:100C3000FC014083518362837383448355836683BD
:100C400077838A019B010E94A0051F910F9108954F
:100C500085B18B7D85B9089585B1846285B9089584
:100C60000F931F93FC01108211821282138214824F
:100C700015821682178200E010E0980140E050E0F3
:100C8000BA010E94A0051F910F9108950F931F9321
:100C9000CF93DF93EC010E94300690E080E0EFEC10
:100CA000F7E03197F1F700C0000001968E3EF2E0C8
:100CB0009F07A9F706E910E020E030E040E050E0AF
:100CC000BA01CE010E94A00590E080E0EFECF7E0D1
:100CD0003197F1F700C0000001968C36F7E09F07CE
:100CE000A9F7CE010E94300690E080E0EFECF7E03B
:100CF0003197F1F700C0000001968E3EF2E09F07A9
:100D0000A9F70C811D812E813F81488159816A811B
:100D10007B81CE010E94A005DF91CF911F910F91A1
:100D200008950F931F93CF93DF93EC010E94300639
:100D300090E080E0EFECF7E03197F1F700C00000C1
:100D400001968E3EF2E09F07A9F700E010E09801BF
:100D500046E950E060E070E0CE010E94A00590E01E
:100D600080E0EFECF7E03197F1F700C0000001966A
:100D70008C36F7E09F07A9F7CE010E94300690E07D
:100D800080E0EFECF7E03197F1F700C0000001964A
:100D90008E3EF2E09F07A9F70C811D812E813F81D5
:100DA000488159816A817B81CE010E94A005DF9133
:100DB000CF911F910F9108950F931F93CF93DF93BE
:100DC000EC010E94300690E080E0EFECF7E0319714
:100DD000F1F700C0000001968E3EF2E09F07A9F7F0
:100DE00000E010E0980146E950E060E070E0CE01DC
:100DF0000E94A00590E080E0EFECF7E03197F1F77A
:100E000000C0000001968A35FAE09F07A9F7CE01DD
:100E10000E94300690E080E0EFECF7E03197F1F7C8
:100E200000C0000001968E3EF2E09F07A9F70C81FA
:100E30001D812E813F81488159816A817B81CE014C
:100E40000E94A005DF91CF911F910F9108951092FC
:100E5000C5008FEC8093C4001092C000E1ECF0E07C
:100E6000808180618083808188608083E2ECF0E013
:100E700080818260808380818460808308958091F6
:100E8000C00085FFFCCF6093C60008958091C0002C
:100E900087FFFCCF8091C6000895CF93DF93EC01CC
:100EA0000E940D0582E08983CE01DF91CF910C94E1
:100EB00027070F931F93CF93DF93182F092FEB0171
:100EC0006991611105C0DF91CF911F910F91089534
:100ED000812F902F0E943F07F3CFEF92FF920F9345
:100EE0001F93CF93DF9300D000D00F92CDB7DEB722
:100EF0008C011F926F9388EA91E09F938F93CE01AC
:100F000001967C019F938F930E94520AB701C801FA
:100F10000E9459070F900F900F900F900F900F9015
:100F20000F900F900F900F900F90DF91CF911F9126
:100F30000F91FF90EF9008950C945907CF93DF9392
:100F4000EC0160E00E9416052981BC0102C0769583
:100F500067952A95E2F7CE01DF91CF910C943F0778
:100F6000CDB7DEB7C15ED1090FB6F894DEBF0FBEB4
:100F7000CDBFCE0101967C010E94770010E000E019
:100F80006E019CEDC90ED11C0230110521F1033018
:100F9000110509F458C00130110529F068EC70E022
:100FA000C7010E949104CE018B539F4F0E942B01D9
:100FB0008091AC018823B9F38091AC0102E08111EA
:100FC00001C001E010E0C7010E949C00CE014996DB
:100FD0000E947202D9CFCE018B539F4F0E9478019D
:100FE000B601CE0147960E94FB03F60180815601AF
:100FF0008823B1F0C352DF4F8881CD5DD040882374
:1010000079F0C252DF4F8881CE5DD040882341F015
:10101000C152DF4F8881CF5DD04003E081110DC008
:1010200048EE53E06DE270E0CE0149960E94D9018E
:10103000CE0149960E94720201E010E0B501C7019D
:101040000E94E000A1CFCE018B539F4F0E9445012B
:101050008091AC018823E1F38091AC01882309F4ED
:10106000A2CFC7010E94BB009ECFAA1BBB1B51E1B0
:1010700007C0AA1FBB1FA617B70710F0A61BB70B08
:10108000881F991F5A95A9F780959095BC01CD01AD
:1010900008955058BB27AA270E9461080C94AB09F9
:1010A0000E949D0938F00E94A40920F039F49F3F66
:1010B00019F426F40C949A090EF4E095E7FB0C94CD
:1010C0009409E92F0E94BC0958F3BA176207730705
:1010D0008407950720F079F4A6F50C94DE090EF448
:1010E000E0950B2EBA2FA02D0B01B90190010C0138
:1010F000CA01A0011124FF27591B99F0593F50F450
:10110000503E68F11A16F040A22F232F342F4427A7
:10111000585FF3CF469537952795A795F04053959F
:10112000C9F77EF41F16BA0B620B730B840BBAF06F
:101130009150A1F0FF0FBB1F661F771F881FC2F7DA
:101140000EC0BA0F621F731F841F48F487957795EE
:101150006795B795F7959E3F08F0B0CF9395880FA8
:1011600008F09927EE0F9795879508950E94CA0871
:101170000C94AB090E94A40958F00E949D0940F00C
:1011800029F45F3F29F00C94940951110C94DF0964
:101190000C949A090E94BC0968F39923B1F3552372
:1011A00091F3951B550BBB27AA276217730784077A
:1011B00038F09F5F5F4F220F331F441FAA1FA9F310
:1011C00035D00E2E3AF0E0E832D091505040E695FE
:1011D000001CCAF72BD0FE2F29D0660F771F881F5F
:1011E000BB1F261737074807AB07B0E809F0BB0B52
:1011F000802DBF01FF2793585F4F3AF09E3F510566
:1012000078F00C9494090C94DF095F3FE4F3983E66
:10121000D4F3869577956795B795F7959F5FC9F74E
:10122000880F911D9695879597F90895E1E0660FCF
:10123000771F881FBB1F621773078407BA0720F048
:10124000621B730B840BBA0BEE1F88F7E0950895B1
:101250000E94C40988F09F5798F0B92F9927B75179
:10126000B0F0E1F0660F771F881F991F1AF0BA954A
:10127000C9F714C0B13091F00E94DE09B1E00895C1
:101280000C94DE09672F782F8827B85F39F0B93FB3
:10129000CCF3869577956795B395D9F73EF49095FD
:1012A0008095709561957F4F8F4F9F4F0895E8947B
:1012B00009C097FB3EF490958095709561957F4F9E
:1012C0008F4F9F4F9923A9F0F92F96E9BB2793954C
:1012D000F695879577956795B795F111F8CFFAF45C
:1012E000BB0F11F460FF1BC06F5F7F4F8F4F9F4F8D
:1012F00016C0882311F096E911C0772321F09EE8EB
:10130000872F762F05C0662371F096E8862F70E050
:1013100060E02AF09A95660F771F881FDAF7880F2A
:101320009695879597F9089597F99F6780E870E0FB
:1013300060E008959FEF80EC089500240A9416164B
:10134000170618060906089500240A9412161306B3
:10135000140605060895092E0394000C11F4882341
:1013600052F0BB0F40F4BF2B11F460FF04C06F5F5D
:101370007F4F8F4F9F4F089557FD9058440F551F33
:1013800059F05F3F71F04795880F97FB991F61F007
:101390009F3F79F087950895121613061406551F7E
:1013A000F2CF4695F1DF08C0161617061806991FEA
:1013B000F1CF86957105610508940895E894BB27DF
:1013C00066277727CB0197F908950E94F8090C94B6
:1013D000AB090E949D0938F00E94A40920F09523D2
:1013E00011F00C9494090C949A0911240C94DF09BF
:1013F0000E94BC0970F3959FC1F3950F50E0551FF3
:10140000629FF001729FBB27F00DB11D639FAA2759
:10141000F00DB11DAA1F649F6627B00DA11D661FA8
:10142000829F2227B00DA11D621F739FB00DA11DC9
:10143000621F839FA00D611D221F749F3327A00D83
:10144000611D231F849F600D211D822F762F6A2F1F
:1014500011249F5750409AF0F1F088234AF0EE0F84
:10146000FF1FBB1F661F771F881F91505040A9F7B1
:101470009E3F510580F00C9494090C94DF095F3F66
:10148000E4F3983ED4F3869577956795B795F795ED
:10149000E7959F5FC1F7FE2B880F911D9695879565
:1014A00097F90895AEE0B0E0E8E5FAE00C94FA0CA4
:1014B0000D891E8986E08C831A8309838FEF9FE74D
:1014C0009E838D83AE01475E5F4F6F89788DCE011D
:1014D00001960E94750A2F813885020F131FF801AB
:1014E00010822E96E4E00C94160DAFE0B0E0EBE72E
:1014F000FAE00C94EC0C7C013B018A01DC011796AC
:101500001C921E92169713968C9181FFBEC19AE091
:10151000292EFE0131964F01D70113969C91F301BC
:1015200093FD859193FF81913F01882309F444C184
:10153000853239F493FD859193FF81913F01853286
:1015400029F4B70190E00E945E0CE6CFB12C412C4B
:10155000512CBFE1B51538F08B3209F188F4803297
:1015600001F1833221F157FC3AC020ED280F2A30D7
:1015700040F556FE1FC0B29C200D1124B22E06C0AD
:101580008D3291F0803379F7689450F8F30193FD30
:10159000859193FF81913F018111DBCF20C0689439
:1015A00051F8689452F8F2CF689453F8EFCF6894EA
:1015B00054F8ECCF429C200D1124422E689455F82B
:1015C000E5CF8E3229F456FCF7C0689456F8DECF8A
:1015D0008C3619F4689457F8D9CF8836B9F2982F19
:1015E0009F7D95549330C0F0833681F18337A1F10C
:1015F000833509F05BC0D801CD90DD908D016B2D56
:1016000070E056FC02C06FEF7FEFC6010E94480CED
:101610005C01689457F80AC00C5F1F4FEFE3E98341
:10162000AA24A394B12C6401E89457F853FE29C06E
:10163000342CA114B10451F5332009F46DCFB70156
:1016400080E290E00E945E0C3A94F6CFD8018C9133
:1016500089830E5F1F4FE4CFF801C190D1908F01B5
:101660006B2D70E056FC02C06FEF7FEFC6010E9449
:10167000530C5C01D9CFB70180E290E00E945E0C70
:101680004A944A141B0409F0B0F7D2CFF60157FC74
:10169000859157FE81916F01B70190E00E945E0C29
:1016A00031103A94B1E0AB1AB108C3CF843619F0C7
:1016B000893609F071C0F80157FE67C061917191D8
:1016C000819191918F01E52DEF76DE2E97FF09C074
:1016D00090958095709561957F4F8F4F9F4F68943F
:1016E000D7F82AE030E0A4010E948E0CC82EC8185A
:1016F000AC2C5D2CD6FE0CC0E89450F8CB1440F412
:10170000D4FE05C0D2FC03C05D2D5E7E552EAB2CF1
:1017100054FE93C0FE01EC0DF11D8081803309F071
:1017200085C0652D697E562E752D7870372E53FC39
:1017300093C050FE8DC0BC2CA41410F4B40CBA1885
:1017400054FE90C0B70180E390E00E945E0C52FE10
:1017500007C088E751FC88E590E0B7010E945E0C65
:10176000CB1408F48BC0CA94D12C8FEFC81AD80AB6
:10177000C80CD91CD6018E916D01B70190E00E9472
:101780005E0C8C149D04B1F757CF61917191072EB7
:10179000000C880B990B96CFD52CE894D4F82AE04E
:1017A000853729F1F52DF97FDF2E8037A1F058F428
:1017B0008835A1F08F36D1F0F701868197812F9679
:1017C000E2E10C94080D8837B9F7D4FE02C06894A2
:1017D000D2F820E10CC06894D4F8F7CF54FE03C0CF
:1017E0002F2F2660D22E20E132E002C028E030E028
:1017F000F801D7FE15C041915191619171914C87CB
:101800005D876E877F878F01A4016C857D858E85BE
:101810009F850E948E0CC82EC818E894D7F868CF10
:1018200081919191AC0170E060E0E9CF52FC02C07F
:10183000A3947ACFA394A39477CF852D867809F4C7
:1018400073CFF6CFB70180E290E00E945E0CA394C4
:10185000A414C0F3312C74CF342C3A18A41408F417
:101860006FCFF8CF852D867809F47ACF8BE251FEC1
:1018700080E257FC8DE2B70190E070CFB70180E3C2
:1018800090E00E945E0CBA946BCF8FEF9FEF97CFE2
:10189000FC010590615070400110D8F7809590953B
:1018A0008E0F9F1F0895FC01615070400190011040
:1018B000D8F7809590958E0F9F1F08950F931F93D3
:1018C000CF93DF93182F092FEB018B8181FD09C086
:1018D0001FEF0FEF812F902FDF91CF911F910F916D
:1018E000089582FF14C02E813F818C819D8128172D
:1018F00039073CF4E881F981CF0101969983888307
:1019000010838E819F8101969F838E83E3CFE8852C
:10191000F985812F0995892BA1F3DACFFA01AA273E
:10192000283051F1203181F1E8946F936E7F6E5F22
:101930007F4F8F4F9F4FAF4FB1E03ED0B4E03CD0D0
:10194000670F781F891F9A1FA11D680F791F8A1FB3
:10195000911DA11D6A0F711D811D911DA11D20D01A
:1019600009F468943F912AE0269F11243019305DD4
:101970003193DEF6CF010895462F4770405D4193C5
:10198000B3E00FD0C9F7F6CF462F4F70405D4A3312
:1019900018F0495D31FD4052419302D0A9F7EACFDA
:1019A000B4E0A6959795879577956795BA95C9F709
:1019B00000976105710508959B01AC010A2E0694FC
:1019C0005795479537952795BA95C9F7620F731FB5
:1019D000841F951FA01D08952F923F924F925F92F2
:1019E0006F927F928F929F92AF92BF92CF92DF922F
:1019F000EF92FF920F931F93CF93DF93CDB7DEB794
:101A0000CA1BDB0B0FB6F894DEBF0FBECDBF099427
:101A10002A88398848885F846E847D848C849B847E
:101A2000AA84B984C884DF80EE80FD800C811B818C
:101A3000AA81B981CE0FD11D0FB6F894DEBF0FBEBB
:0A1A4000CDBFED010895F894FFCF2B
:101A4A000000DC427B14E942A4F0F6425CCF024378
:101A5A000A970A437BD412435C8F1B435CCF24430F
:101A6A00299C2E43000039430000444366A64F4395
:101A7A0000005C437B146943A4F07643A4D08243FC
:101A8A000A978A437BD49243A4909B43A4D0A4434D
:101A9A00719DAE43B8FEB8430000C44366A6CF4367
:101AAA000000DC437B14E943A4F0F64300D002446F
:101ABA00AE970A441FD5124400901B44A4D0244474
:101ACA00719D2E445CFF38445CFF43440AA74F448F
:101ADA0000005C4440003B003C0040003B00BC026C
:0C1AEA00BC02A203BC02BC022564000088
:00000001FF
