:100000000C943E000C945D000C945B000C945B001F
:100010000C945B000C945B000C945B000C945B00F4
:100020000C945B000C945B000C945B000C945B00E4
:100030000C945B000C945B000C945B000C945B00D4
:100040000C945B000C945B000C945B000C945B00C4
:100050000C945B000C945B000C945B000C945B00B4
:100060000C945B000C945B000C945B000C945B00A4
:100070000C945B000C945B000C945B0011241FBE7D
:10008000CFEFD8E0DEBFCDBF12E0A0E0B1E0ECE002
:10009000F6E302C005900D92A63AB107D9F722E027
:1000A000A6EAB2E001C01D92A73AB207E1F70E94AA
:1000B0003A150C94CD1A0C9400001F921FB61F9293
:1000C00011248F939F938FE59AEE0197F1F700C06B
:1000D00000004A9B09C081E08093A6029F918F9106
:1000E0001F901FBE1F9018951092A602F7CF0F9376
:1000F000CF93DF93EC010E943D04CE01C0960E9495
:100100008602CE01C1960E946B08CE01C4960E9461
:100110009B0103E022E047E250E068E270E0CE019C
:1001200080529F4F0E941801CE018C519F4F0E9418
:1001300016013898DF91CF910F910895309B0CC034
:100140002FEF80E792E0215080409040E1F700C01F
:10015000000086B18170089580E008951F93CF93C9
:10016000DF9313E0EC01E49642E350E060E570E0D9
:10017000CE010E94E401CE010E947D022FE788E3B8
:1001800091E0215080409040E1F700C00000115004
:1001900059F7DF91CF911F9108951F93CF93DF936C
:1001A0001FE0EC01C052DF4FCE010E9450012FEF43
:1001B00080E792E0215080409040E1F700C00000CD
:1001C000CE010E9483012FEF80E792E02150804012
:1001D0009040E1F700C00000115031F7DF91CF915E
:1001E0001F910895FB01DC01AB51BF4FAB014E5E87
:1001F0005F4F208160E1269F90011124818164E09E
:10020000869FC0011124282B8281282B2D933396A1
:100210004E175F0771F70895F8945298E89AE9E647
:10022000F0E0808181608083789408950C940C01C3
:100230000F93DC01FA0111967C936E9312962C9326
:10024000129713960C93308181E090E0AC0101C0CD
:10025000440F0A95EAF7342B3083308101C0880FB0
:100260002A95EAF7832B80830F910895FC01A081E2
:10027000B1812C91328181E090E0AC0101C0440F4A
:100280003A95EAF7242B2C93A081B1812C913381EC
:1002900001C0880F3A95EAF7809582238C930895E0
:1002A000FC01A081B1812C91338181E090E0AC010F
:1002B00001C0440F3A95EAF7242B2C93A081B18119
:1002C0002C91328101C0880F3A95EAF780958223FC
:1002D0008C930895CF93DF93D82FC92F0E9450019C
:1002E0008FE097E20197F1F700C000008D2F9C2F5F
:1002F0000E9436018FE097E20197F1F700C00000FD
:10030000DF91CF910895FC01A081B1814C9183814F
:1003100021E030E0B90102C0660F771F8A95E2F74D
:10032000CB01928101C0220F9A95EAF7822B80952A
:1003300084238C930895CF93DF93EC018DE288831F
:1003400080E094E09A83898384E9E0E0F1E0DE01D3
:10035000139601900D928A95E1F7DE01A956BF4FE1
:100360008AE0E4E9F1E001900D928A95E1F7DE017F
:10037000AF55BF4F8AE0EEE9F1E001900D928A950A
:10038000E1F7C555DF4F85E088838AB1806C8AB973
:10039000DF91CF910895CA01DB010097A105B10556
:1003A00091F040E050E0BA01EFECF7E03197F1F75F
:1003B00000C000004F5F5F4F6F4F7F4F841795075E
:1003C000A607B70789F70895EF92FF920F931F933F
:1003D000CF93DF9300D000D000D0CDB7DEB78C0133
:1003E0007A01FC0180819B01281B3109220F331FF8
:1003F000220F331F200F311F3E832D838181928175
:10040000880F991F9C0150E040E029833A834B8379
:100410005C83CA01B9010E940117ED81FE8123812D
:1004200034814581568169837A838B839C8369817A
:100430007A818B819C810E948F179B01AC0160E0C7
:1004400074E284EF9AE40E94601620E030E040E815
:100450005FE369837A838B839C8369817A818B8153
:100460009C810E94F31569837A838B839C836981C5
:100470007A818B819C810E94D2166093B300E0EB5D
:10048000F0E0808182648083E1EBF0E0808187602E
:100490008083A70170E060E0C80126960FB6F8944B
:1004A000DEBF0FBECDBFDF91CF911F910F91FF90A7
:1004B000EF900C94CB01EF92FF920F931F93CF9389
:1004C000DF93EC018C0109561F4F7C0181EAE80E95
:1004D000F11CF8010E5F1F4F4285538560817181C9
:1004E000CE010E94E4010E151F0599F7DF91CF910F
:1004F0001F910F91FF90EF900895E1EBF0E01082D3
:100500001092B3001092B00010820895F8940F98E2
:10051000559AE0E8F0E08081836080838081806587
:100520008083E1E8F0E08081816080838081886160
:10053000808310928900109288007894089588E64C
:1005400090E090938900809388000895109289002C
:1005500010928800089510928000109281001092ED
:100560008900109288000895E8E8F0E088E690E0BD
:10057000918380838FEB92E10197F1F700C0000037
:10058000118210828FEA94E00197F1F700C0000019
:10059000089588E690E09093890080938800662310
:1005A00089F08FE599E00197F1F700C00000109203
:1005B0008900109288008FEA94E00197F1F700C05B
:1005C000000008958FEA94E00197F1F7EECFCF9203
:1005D000DF92FF920F931F93CF93DF938C01F62E40
:1005E000D0E0C0E0CC24C394D12CC6010C2E01C0B5
:1005F000880F0A94EAF78F2161E009F460E0C801EE
:100600000E94C9022196C830D10579F7DF91CF91B8
:100610001F910F91FF90DF90CF9008950C94E70207
:100620000F931F93CF93DF93D82FC92F162F00E07E
:10063000062788E09CE8069508F409278A95D9F7EB
:100640008D2F9C2F0E94B402612F8D2F9C2F0E9412
:10065000E7028D2F9C2F0E94B402602F8D2F9C2FBC
:100660000E94E7028D2F9C2FDF91CF911F910F9158
:100670000C94B4020F931F93CF93DF93182FD92FAD
:10068000062F2FEF89E698E1215080409040E1F756
:1006900000C00000C5E0602F812F9D2F0E94100335
:1006A000C150C9F7DF91CF911F910F910895EF923B
:1006B000FF920F931F93CF93DF938C01EB017B018C
:1006C00086E0E80EF11C6991C8010E943A03CE153C
:1006D000DF05C9F7DF91CF911F910F91FF90EF9048
:1006E000089580B18095881F8827881F089580E02D
:1006F00007990895E7ECF0E03197F1F700C00000AA
:100700008F5FF6CF70E050E0CA0103976817790752
:1007100034F04D5F5F4F81E0461757070CF480E0DF
:100720000895EF92FF920F931F93CF93DF93182FAB
:10073000092F079B13C0C0E08C2FDF91CF911F9131
:100740000F91FF90EF9008950799FECF8551873064
:1007500038F0812F902F0E947703F6CF80E0F6CFFC
:10076000D0E0C0E0EE24E394F12C812F902F0E9482
:100770007703282F30E0233031055CF02A30310533
:100780007CF497010D2E01C0220F0A94EAF7209500
:10079000C2230799FECFDF5F8551873030F7CCCF7A
:1007A00020313105B4F797010D2E01C0220F0A94B4
:1007B000EAF7C22BEECF0F931F93CF93DF938C01F9
:1007C0000E949103C82FD0E0DC2FCC27C8010E94E3
:1007D00091039E01282BC901DF91CF911F910F91A9
:1007E0000895FB01908180E0892798E02CE88695A8
:1007F00008F482279A95D9F79181892798E02CE807
:10080000869508F482279A95D9F70895AF92BF92FA
:10081000DF92EF92FF920F931F93CF93DF9300D05D
:10082000CDB7DEB7E82ED92E8B015B0186E0A80E8E
:10083000B11C8E2D9D2D0E94DB03F82E89839A8397
:10084000BE016F5F7F4F8E2D9D2D0E94F1038111A0
:10085000F0CFFF2071F3F801F1928F01EA15FB054B
:1008600041F70F900F90DF91CF911F910F91FF9063
:10087000EF90DF90BF90AF9008950F931F93FC010E
:100880008BE990E0938B828B148A81E0858B168AAA
:10089000178A108E118E128E138E148E158E168E50
:1008A000178E04EA10E72DE73FE340E050E060E8F0
:1008B0007FE3CF0180960E94B91211B81F910F916A
:1008C00008958F929F92AF92BF92CF92DF92EF9254
:1008D000FF920F931F93CF93DF93EC01862EC42ECC
:1008E0002FEF87E893E1215080409040E1F700C06E
:1008F0000000A096049B14C0042F10E030E020E01C
:10090000462F50E070E060E0CE010E94FE122FEF13
:1009100084E39CE0215080409040E1F700C000005B
:10092000D12CF12CE12C912CB12CA12C049B19C0C1
:10093000CE010E948E132FEF89E698E1215080406E
:100940009040E1F700C00000DF91CF911F910F911F
:10095000FF90EF90DF90CF90BF90AF909F908F90DF
:10096000089597018601B501A401CE010E94FE12EF
:10097000DDCF8F929F92AF92BF92CF92DF92EF9294
:10098000FF920F931F93CF93DF93EC01862EC42E1B
:100990002FEF87E893E1215080409040E1F700C0BD
:1009A0000000A096019B14C0042F10E030E020E06E
:1009B000462F50E070E060E0CE010E94FE122FEF63
:1009C00084E39CE0215080409040E1F700C00000AB
:1009D000D12CF12CE12C912CB12CA12C019B19C014
:1009E000CE010E948E132FEF89E698E121508040BE
:1009F0009040E1F700C00000DF91CF911F910F916F
:100A0000FF90EF90DF90CF90BF90AF909F908F902E
:100A1000089597018601B501A401CE010E94FE123E
:100A2000DDCFEF92FF920F931F93CF93DF937C0163
:100A3000EC01A096CE010E948A13F70142895389E6
:100A4000052E000C660B770BCE010E94571390B158
:100A5000892F8F718630B9F050F59C71F9F4882395
:100A600009F465C0F701428953898A01052E000CFB
:100A7000220B330B4B5F5F4F052E000C660B770B81
:100A8000CE010E94FE12F701428953898A010B5F51
:100A90001F4F012E000C220B330B1AC0843049F17A
:100AA000DF91CF911F910F91FF90EF9008958831C2
:100AB00029F0B0F4883081F18C3091F7F701428948
:100AC00053898A01052E000C220B330B4B5F5F4FBD
:100AD000052E000C660B770BCE010E94FE12E0CFB4
:100AE0008F31F1F6CE010E948E1381E0F701818FE4
:100AF000D7CFCE010E948A13F70142895389052E70
:100B0000000C660B770BCE01DF91CF911F910F91F7
:100B1000FF90EF900C945713F701428953898A0193
:100B2000052E000C220B330B465F5F4FD1CFCE0159
:100B3000DF91CF911F910F91FF90EF900C9486134E
:100B4000CF92DF92EF92FF920F931F93CF93DF9399
:100B5000EC017C0120E2E20EF11C8C89882379F102
:100B60007E0180E2E80EF11CDD24D39475E3C72EEC
:100B70008E8981117BC2888D882309F490C0C701BA
:100B80000E9486134A895B89052E000C660B770B41
:100B9000C7010E9457139FE323EB81E1915020404E
:100BA0008040E1F700C00000C701DF91CF911F91A5
:100BB0000F91FF90EF90DF90CF900C948E13E0B1E7
:100BC000EF71E150EE31D8F7F0E0E153F54E0C94BF
:100BD000D915C7010E9486134A895B89052E000C2E
:100BE000660B770BC7010E945713B7CF4A895B8901
:100BF0008A01095C1F4F012E000C220B330B43525C
:100C00005109052E000C660B770BC7010E94FE12DE
:100C1000A4CF4A895B898A010F5B1F4F012E000C0C
:100C2000220B330BEECF4A895B898A01052E000C1B
:100C3000220B330B4D5D5F4F052E000C660B770BBF
:100C4000C7010E94FE124A895B898A01052E000CA9
:100C5000220B330B475E5F4FD4CF4A895B89052E49
:100C6000000C660B770B8A019B01C7010E94FE12E4
:100C70008FE79EED2FE0815090402040E1F700C0CB
:100C80000000C7010E948E134A8961E0CE010E94D4
:100C90006104C7010E948E1381E08C8B5ECFE0B1AE
:100CA000EF71E93108F45DC0EA51E63008F060CF39
:100CB0008C2D01C08695EA95EAF780FF59CFC701D0
:100CC0000E948E139FEF23EC89E0915020408040DA
:100CD000E1F700C00000C7010E9486134A895B89C2
:100CE000052E000C660B770BC7010E9457139FEF70
:100CF00024E38CE0915020408040E1F700C00000E8
:100D0000C7010E948E139FEF24E38CE09150204096
:100D10008040E1F700C0000080B18F7109F070C021
:100D2000C7010E9486134A895B89052E000C660B59
:100D3000770BC7010E9457139FEF22E587E0915080
:100D400020408040E1F700C000004A8961E0CE0108
:100D50000E946104C7010E948E138B8D8F5F8B8F61
:100D600007CFF0E0E351F54E0C94D915C7010E946E
:100D700086134A895B89052E000C660B770BC70129
:100D80000E945713F5CE4A895B898A01095C1F4F7F
:100D9000012E000C220B330B43525109052E000C7F
:100DA000660B770BC7010E94FE12E2CE4A895B896F
:100DB0008A010B5A1F4F012E000C220B330BEECF72
:100DC0004A895B898A010F5B1F4FF5CF4A895B898E
:100DD0008A01052E000C220B330B4D5D5F4F052E53
:100DE000000C660B770BC7010E94FE124A895B89D3
:100DF0008A01052E000C220B330B415F5F4FCECFD3
:100E0000C7010E948A139FEF24E38CE09150204099
:100E10008040E1F700C00000C7010E948E134A899C
:100E20005B898A01052E000C220B330B45505109BA
:100E3000052E000C660B770BC7010E94FE12C7013E
:100E40000E948A139FEF2EE984E291502040804057
:100E5000E1F700C00000C7010E948E139FEF20E75A
:100E600082E0915020408040E1F700C000004A89B4
:100E70005B898A0105501109012E000C220B330BEE
:100E8000052E000C660B770BC7010E94FE12C701EE
:100E90000E9486134A895B89052E000C660B770B2E
:100EA000C7010E9457139FEF2BE584E49150204027
:100EB0008040E1F700C00000C7010E948E139FEF41
:100EC00027E883E1915020408040E1F700C0000016
:100ED00080B18F7129F44A8961E0CE010E94B90482
:100EE000C7010E948A1341E06A89CE010E94610411
:100EF000C7010E948613C7010E9486134A895B8935
:100F0000052E000C660B770BC7010E9457139FEF4D
:100F100024E38CE0915020408040E1F700C00000C5
:100F200027CEC7010E948E139FEF23EC89E09150DA
:100F300020408040E1F700C00000C7010E948613F6
:100F40004A895B89052E000C660B770BC7010E944E
:100F500057139FE721E387E1915020408040E1F75C
:100F600000C00000C7010E948E13C7010E94EF134A
:100F700080B18F7129F0C7010E948E13D88EF8CDF1
:100F8000C7010E948A134A895B89052E000C660BF3
:100F9000770BC7010E945713EBCFC7010E948E1336
:100FA0009FEF22E587E0915020408040E1F700C0AC
:100FB0000000C7010E948A134A895B89052E000C34
:100FC000660B770BC7010E9457139FE720EC84E163
:100FD000915020408040E1F700C00000898D8823B7
:100FE00001F18C8D21E0893020F022E08F3008F073
:100FF00023E09D8D3B8D8F8D482F50E0FA01EE0F41
:10100000FF1FE40FF51FEC0FFD1F90833183228338
:101010001E8E1C8E9F5F9D8F8F5F8F8F198EDE8A35
:10102000A7CD80B18F7109F4D98ECE010E94110530
:101030009FEF21EE84E0915020408040E1F700C016
:101040000000C7010E948E139FEF20E782E09150BD
:1010500020408040E1F700C000008C8D8F5F8C8FB6
:1010600080B18F7109F0BACFD98EB8CFC7010E9475
:101070008E139FEF23EC89E0915020408040E1F7F0
:1010800000C00000C7010E9486134A895B89052EB3
:10109000000C660B770BC7010E9457139FEF2EE9D8
:1010A00084E2915020408040E1F700C00000C70179
:1010B0000E948E13C7010E948613C7010E943A1432
:1010C0004A8961E0CE010E9461041E8A888D8823CE
:1010D00009F44ECD54CDCF93DF93EC010E94AB14B5
:1010E00086E08A83DF91CF910895CF92DF92EF92CD
:1010F000FF920F931F93CF93DF93F82EE92ED62EF6
:10110000C72ED0E0C0E0042F10E0C017D1074CF08C
:10111000DF91CF911F910F91FF90EF90DF90CF90D3
:1011200008952FEF80E792E0215080409040E1F752
:1011300000C000006D2D7C2D8F2D9E2D0E94B714B8
:101140002196E3CF2F923F924F925F926F927F92C0
:101150008F929F92AF92BF92CF92DF92EF92FF92C7
:101160000F931F93CF93DF93CDB7DEB7C658D1400F
:101170000FB6F894DEBF0FBECDBF3C01C458DE4FA2
:101180006883CC57D140C758DE4F4883C957D140F8
:101190002901C159DE4F1882CF56D1408AE090E034
:1011A000C359DE4F99838883CD56D14084E1E8EA64
:1011B000F1E0DE01AB57BF4F01900D928A95E1F748
:1011C0008091BC019091BD01A091BE01B091BF0181
:1011D000C959DE4F88839983AA83BB83C756D14000
:1011E00082E2E0ECF1E0DE01AD59BF4F01900D92DB
:1011F0008A95E1F785E0E2EEF1E0DE01A65EBE4F02
:1012000001900D928A95E1F76E012DE9C21A2EEF39
:10121000D20A8091E7019091E801A091E901B09193
:10122000EA01F60180839183A283B3837E01FBEE02
:10123000EF1AFEEFFF0A85E0EBEEF1E0D701019037
:101240000D928A95E1F78E010C521F4F8CE0E8E574
:10125000F2E0D80101900D928A95E1F78091F001BA
:101260009091F101A091F201B091F301C15ADE4FCA
:1012700088839983AA83BB83CF55D1408091F401A1
:101280009091F501A091F601B091F701C55ADE4F9A
:1012900088839983AA83BB83CB55D1408091F80181
:1012A0009091F901A091FA01B091FB01C95ADE4F6A
:1012B00088839983AA83BB83C755D1404E012AEE08
:1012C000820E911C87E0EDE5F2E0D40101900D92D1
:1012D0008A95E1F780E1ECEFF1E0DE01A455BF4F24
:1012E00001900D928A95E1F786E0EEE5F2E0DE01ED
:1012F000A15FBE4F01900D928A95E1F780910C029B
:1013000090910D02A0910E02B0910F02CD5ADE4FC6
:1013100088839983AA83BB83C355D14080911002EF
:1013200090911102A0911202B0911302C15BDE4FA5
:1013300088839983AA83BB83CF54D14080911402C0
:1013400090911502A0911602B0911702C55BDE4F75
:1013500088839983AA83BB83CB54D14080911802A0
:1013600090911902A0911A02B0911B02C95BDE4F45
:1013700088839983AA83BB83C754D14083E1ECE17E
:10138000F2E0DE01A756BF4F01900D928A95E1F77A
:1013900080912F0290913002A0913102B0913202DF
:1013A000CD5BDE4F88839983AA83BB83C354D1402E
:1013B00081E3E3E3F2E0DE01D29601900D928A959B
:1013C000E1F786E0EEE5F2E0DE01A75FBE4F0190B7
:1013D0000D928A95E1F780E290E0C559DE4F99833E
:1013E0008883CB56D1408091640290916502A09190
:1013F0006602B0916702C15CDE4F88839983AA833D
:10140000BB83CF53D14042E3BE0161597E4FC3013C
:101410000E94750841E0BE0163597E4FC3010E94DE
:10142000750841E0BE0169597E4FC3010E947508ED
:1014300049E0BE016D597F4FC3010E94750841E02C
:10144000BE01665E7E4FC3010E94750841E0B60191
:10145000C3010E94750849E0B801C3010E947508E4
:1014600041E0B701C3010E94750841E0B601C30124
:101470000E94750849E0B801C3010E94750841E067
:10148000B701C3010E94750841E0B601C3010E9483
:10149000750841E0B401C3010E94750841E0BE0136
:1014A000695A7E4FC3010E94750845E0BE0164552C
:1014B0007F4FC3010E94750841E0BE016D5A7E4F07
:1014C000C3010E94750846E0B801C3010E94750877
:1014D00041E0B701C3010E94750862E0A62EB12C5D
:1014E000302E212E182D092D41E0B601C3010E9496
:1014F000750841E0612F702FC3010E94750841E01B
:10150000BE01615B7E4FC3010E94750845E0BE01CC
:10151000615F7E4FC3010E94750841E0BE01615BBF
:101520007E4FC3010E94750846E0632D722DC301F2
:101530000E94750841E0B701C3010E947508AA9492
:10154000AB2809F094C141E0B601C3010E947508BF
:1015500041E0612F702FC3010E94750841E0BE0178
:10156000615B7E4FC3010E94750845E0BE01615F6B
:101570007E4FC3010E94750841E0BE01615B7E4F52
:10158000C3010E94750841E0632D722DC3010E94C2
:1015900075089E01255C3E4F80916802909169021A
:1015A000A0916A02B0916B02F90180839183A283BA
:1015B000B383F0912B02C258DE4FF883CE57D1404F
:1015C00040912C02C058DE4F4883C058D140509102
:1015D0002D02CF57DE4F5883C158D14060912E0263
:1015E000CE57DE4F6883C258D140C95CDE4FF883C6
:1015F000C753D140C85CDE4F4883C853D140C75C55
:10160000DE4F5883C953D140C65CDE4F6883CA534E
:10161000D140CE018D5C9E4F40916C0250916D0285
:1016200060916E0270916F02DC014D935D936D933A
:101630007C931397409170025091710260917202F5
:1016400070917302C15DDE4F488359836A837B8347
:10165000CF52D14046E0E4E7F2E0D09701900D92FE
:101660004A95E1F746E0EAE7F2E0DE01A350BF4F1A
:1016700001900D924A95E1F746E0E0E8F2E0DE01E4
:10168000A950BF4F01900D924A95E1F74AE0E6E874
:10169000F2E0DE01A052BF4F01900D924A95E1F7B2
:1016A00046E0E0E9F2E0DE01AF50BF4F01900D925D
:1016B0004A95E1F7FE01E853FF4FC059DE4FF98329
:1016C000E883C057D1404CE0542F11925A95E9F766
:1016D000DE01A454BF4FFD0111924A95E9F7CB58A2
:1016E000DE4F59824882C557D140A2014E5E5F4FFE
:1016F000F20161E0CC58DE4F6883C457D140CD572A
:10170000DE4F2883C358D140CC57DE4F3883C458AE
:10171000D140CB57DE4F8883C558D140CA57DE4FE2
:101720009883C658D140C658DE4FA883CA57D140C7
:10173000C558DE4FB883CB57D140818181110BC092
:10174000CC58DE4F7881C457D1407F5FCC58DE4FF4
:101750007883C457D14033964E175F0771F7D30192
:1017600012968C91E82FF0E0C958DE4FF983E88398
:10177000C757D1409E0128533F4FC658DE4F28809F
:10178000CA57D140C558DE4F3880CB57D1404201AF
:10179000E0E3F0E0512C412CCC58DE4F4881C45797
:1017A000D140A42EB12CC958DE4F48815981C7576A
:1017B000D140441655060CF45EC041E0CD57DE4FD3
:1017C0006881C358D140CC57DE4F7881C458D1408E
:1017D000C3010E9475088FEF9FEFBC016F5F7F4FC1
:1017E0002B01009709F441C0C853DF4F288139818C
:1017F000C85CD0408217930769F1C653DF4F288138
:101800003981CA5CD0402817390721F1C453DF4F12
:1018100028813981CC5CD04028173907D9F0C253D0
:10182000DF4F28813981CE5CD0402817390791F0ED
:10183000C053DF4F28813981C05DD0402817390758
:1018400049F0CE52DF4F28813981C25DD040281740
:101850003907F1F541E0BE01615D7E4FC3010E9491
:10186000750870E347165104C1F1C201B6CFAA242E
:10187000A394B12C39CE5FEF451A550AD4011196C5
:101880008C91811112C0CF01B5010E94C515D901FB
:101890006D937C93D40112968C91823081F08330C9
:1018A000A1F041E050E0813061F053E0850E911CE1
:1018B00062E0260E311CF0962E5F3F4F74CF42E05F
:1018C00050E0D1014D935C93F0CF43E050E0F9CF6D
:1018D00041E0BE01695C7E4FC1CF41E0CB57DE4F96
:1018E0006881C558D140CA57DE4F7881C658D1406B
:1018F000C3010E94750841E0BE01675F7E4FC301CE
:101900000E94750841E0B701C3010E947508C458E0
:10191000DE4F8881CC57D14063E00E94B915C95889
:10192000DE4F9883C757D14055E0E52EF12CB12CFE
:1019300088EC90E08C0F9D1F0C96C458DE4F998365
:101940008883CC57D14081E3E3E3F2E0DE011196D6
:1019500001900D928A95E1F7C658DE4FE881CA578B
:10196000D140C558DE4FF881CB57D140DE01A85396
:10197000BF4F4D014CE7D4012D913D914D012115F3
:10198000310579F08081918197FD0BC061E070E0B5
:101990006C0F7D1F260F371FD9014C930197918340
:1019A00080833296C458DE4F28813981CC57D1408C
:1019B0008216930601F7C958DE4F3881C757D140C8
:1019C0003111C3C0C758DE4F4881C957D14041309B
:1019D00009F0F1C2B11035C0B601C3010E9475080B
:1019E00041E0612F702FC3010E94750841E0BE01E4
:1019F000615B7E4FC3010E94750842E0BE01615FDA
:101A00007E4FC3010E94750841E0BE016D5F7E4FAD
:101A1000C3010E94750842E0BE01615F7E4FC301B1
:101A20000E94750841E0BE01615B7E4FC3010E94C8
:101A3000750841E0BE016C527F4FC3010E947508DA
:101A4000A7C051E0B5121EC041E0B601C3010E941B
:101A5000750841E0612F702FC3010E94750841E0B5
:101A6000BE01615B7E4FC3010E94750842E0BE016A
:101A7000615F7E4FC3010E94750841E0BE01635063
:101A80007F4FC6CF62E0B6121EC041E0B601C3016F
:101A90000E94750841E0612F702FC3010E947508F4
:101AA00041E0BE01615B7E4FC3010E94750842E0C8
:101AB000BE01615F7E4FC3010E94750841E0BE0117
:101AC00069507F4FA5CF73E0B7121EC041E0B60149
:101AD000C3010E94750841E0612F702FC3010E946D
:101AE000750841E0BE01615B7E4FC3010E9475082D
:101AF00042E0BE01615F7E4FC3010E94750841E074
:101B0000BE0160527F4F84CF84E0B81241C041E0F3
:101B1000B601C3010E94750841E0612F702FC30117
:101B20000E94750841E0BE01615B7E4FC3010E94C7
:101B3000750842E0BE01615F7E4FC3010E947508D7
:101B400041E0BE016F507F4F63CFC958DE4F98818F
:101B5000C757D140913009F02EC2C758DE4FA88137
:101B6000C957D140A11127C2B11002C041E034CF02
:101B7000B1E0BB1609F468CFE2E0BE1609F4A6CFC7
:101B8000F3E0BF1609F481CF24E0B21609F4BFCF09
:101B9000B39441E0BE016D5B7E4FC3010E947508A6
:101BA00041E0BE016F5F7F4FC3010E94750841E0B5
:101BB000BE016D5B7E4FC3010E94750841E0BE010E
:101BC000675F7E4FC3010E94750841E0BE016B5EF6
:101BD0007E4FC3010E94750831E0E31AF10809F055
:101BE000B2CE41E0B601C3010E9475088E010651D4
:101BF0001F4F41E0B801C3010E9475085E0141EB2F
:101C0000A41A4EEFB40A41E0B501C3010E94750861
:101C10007E0151EFE51A5EEFF50A45E0B701C30119
:101C20000E9475084CE0BE0165597E4FC3010E94B9
:101C3000750841E0BE016D5B7E4FC3010E947508CF
:101C400041E0BE016E5C7F4FC3010E94750841E018
:101C5000BE016D5B7E4FC3010E94750841E0BE016D
:101C6000675F7E4FC3010E94750841E0BE016B5E55
:101C70007E4FC3010E94750841E0B601C3010E9476
:101C8000750841E0B801C3010E94750841E0B50143
:101C9000C3010E94750845E0B701C3010E947508A1
:101CA00046E0BE0165597E4FC3010E94750841E0C0
:101CB000BE0167567F4FC3010E94750841E0BE0117
:101CC000615C7E4FC3010E94750841E0BE016E5CFD
:101CD0007F4FC3010E94750841E0BE016D5B7E4FDE
:101CE000C3010E94750841E0BE01675F7E4FC301DA
:101CF0000E94750841E0BE016B5E7E4FC3010E94E9
:101D0000750841E0B601C3010E94750841E0B801C1
:101D1000C3010E94750841E0B501C3010E94750826
:101D200045E0B701C3010E9475084CE0BE0165594A
:101D30007E4FC3010E94750841E0BE016D5B7E4F7E
:101D4000C3010E94750841E0BE016E5C7F4FC30174
:101D50000E94750841E0BE016D5B7E4FC3010E9489
:101D6000750841E0BE01675F7E4FC3010E947508A0
:101D700041E0BE016B5E7E4FC3010E947508DE012B
:101D8000A55DBE4F409196025091970260919802D6
:101D9000709199024D935D936D937C93139740914D
:101DA0009A0250919B0260919C0270919D02C95DC4
:101DB000DE4F488359836A837B83C752D140C25820
:101DC000DE4F6881CE57D140CD5DDE4F6883C35270
:101DD000D140C058DE4F7881C058D140CC5DDE4F35
:101DE0007883C452D140CF57DE4F8881C158D1404B
:101DF000CB5DDE4F8883C552D140CE57DE4F9881F0
:101E0000C258D140CA5DDE4F9883C652D14040913E
:101E10009E0250919F026091A0027091A102C15E4A
:101E2000DE4F488359836A837B83CF51D140F301CE
:101E30008281282F30E0C258DE4F39832883CE5765
:101E4000D1409E0128533F4FC658DE4FE881CA5704
:101E5000D140C558DE4FF881CB57D140D12CC12C91
:101E600047011501C058DE4FA883C058D140CF5755
:101E7000DE4FB883C158D140CC58DE4F4881C4579B
:101E8000D140E42EF12CAA24A394B12CC258DE4FE9
:101E900048815981CE57D140C416D5060CF4B3C041
:101EA00095E0A92EB12CD12C2CE7C22E2E0157EF94
:101EB000451A5EEF550ABE016B5E7E4FCE58DE4F6F
:101EC00079836883C257D14081E3E3E3F2E0DE0126
:101ED000119601900D928A95E1F7C658DE4FE88180
:101EE000CA57D140C558DE4FF881CB57D140BE010B
:101EF00068537F4FDB012D913D91BD0121153105C7
:101F000081F0808191811816190644F041E050E07B
:101F10004C0F5D1F240F351FD901CC92019791837F
:101F200080833296C458DE4F28813981CC57D14006
:101F300026173707F9F6C958DE4F3881C757D14001
:101F4000313009F01CC1C758DE4F4881C957D14014
:101F5000413009F0F4C1D1109AC0BE016D597E4FD5
:101F6000C3010E94750841E0B801C3010E947508D1
:101F700041E0B101C3010E94750842E0B401C30110
:101F80000E94750841E0BE016D5F7E4FC3010E9453
:101F9000750842E0B401C3010E94750841E0B10137
:101FA000C3010E94750841E0BE016C527F4FC3011E
:101FB0000E94750804C141E0B601C3010E94750882
:101FC00041E0612F702FC3010E94750841E0BE01FE
:101FD000615B7E4FC3010E94750845E0BE01615FF1
:101FE0007E4FC3010E94750841E0BE01615B7E4FD8
:101FF000C3010E94750841E0BE016C527F4FC301CE
:102000000E947508C6CD5FEFC51AD50ACB58DE4FC2
:10201000A881B981C557D14011968C918230C9F4FD
:10202000C201B7010E94C51564507109D9016D93B1
:102030007C93CB58DE4FA881B981C557D140129609
:102040008C918230D1F08330E9F0813011F4B1828B
:10205000A082CB58DE4F88819981C557D140039625
:10206000CB58DE4F99838883C557D140329690E391
:10207000490E511C2E5F3F4F09CF42E050E0518383
:102080004083E7CF63E070E071836083E2CF51E08B
:10209000D5121BC041E0BE016D597E4FC3010E94A5
:1020A000750841E0B801C3010E94750841E0B10123
:1020B000C3010E94750842E0B401C3010E94750883
:1020C00041E0BE0163507F4F61CF62E0D6121BC07A
:1020D00041E0BE016D597E4FC3010E94750841E089
:1020E000B801C3010E94750841E0B101C3010E941B
:1020F000750842E0B401C3010E94750841E0BE01C9
:1021000060527F4F43CF73E0D7121BC041E0BE0146
:102110006D597E4FC3010E94750841E0B801C301AB
:102120000E94750841E0B101C3010E94750842E0B8
:10213000B401C3010E94750841E0BE0169507F4FA0
:1021400025CF84E0D8123BC041E0BE016D597E4FDF
:10215000C3010E94750841E0B801C3010E947508DF
:1021600041E0B101C3010E94750842E0B401C3011E
:102170000E94750841E0BE016F507F4F07CFC958DC
:10218000DE4F8881C757D140C758DE4F9881C95765
:10219000D140892B09F0D3C0D11002C041E0DDCE7F
:1021A000A1E0DA1609F476CFB2E0DB1609F4AECF7F
:1021B000E3E0DE1609F48CCFF4E0DF1629F2D394C5
:1021C00041E0BE016D5B7E4FC3010E94750841E096
:1021D000BE016F5F7F4FC3010E94750841E0BE01E1
:1021E0006D5B7E4FC3010E94750841E0B201C301DF
:1021F0000E94750841E0BE016B5E7E4FC3010E94E4
:10220000750821E0A21AB108CE58DE4FE880C25707
:10221000D140CD58DE4FF880C357D140CC58DE4F67
:102220004882C457D140CB58DE4F5882C557D14061
:10223000A114B10409F048CE6E013DE9C31A3EEF86
:10224000D30A41E0B601C3010E94750841E0B8011C
:10225000C3010E94750841E0B101C3010E947508E5
:1022600045E0B401C3010E94750841E0B101C3011A
:102270000E9475085E0144EDA40EB11C41E0B50159
:10228000C3010E94750841E0C058DE4F6881C05804
:10229000D140CF57DE4F7881C158D140C3010E9451
:1022A00075088FEF9FEF5A2C4B2CBC016F5F7F4F4F
:1022B0005B01009709F441C0C853DF4F2881398181
:1022C000C85CD0402817390769F1C653DF4F288111
:1022D0003981CA5CD0402817390721F1C453DF4F38
:1022E00028813981CC5CD04028173907D9F0C253F6
:1022F000DF4F28813981CE5CD0402817390791F013
:10230000C053DF4F28813981C05DD040281739077D
:1023100049F0CE52DF4F28813981C25DD040281765
:10232000390781F541E0BE01615E7E4FC3010E9425
:10233000750870E3A716B10451F1C501B6CF41E0AD
:10234000BE016D597E4FC3010E94750841E0B8017E
:10235000C3010E94750841E0B101C3010E947508E4
:1023600045E0B401C3010E94750841E0B101C30119
:102370000E94750841E0BE016C527F4FC3010E946C
:1023800075081ECF41E0BE016D5D7E4FCFCF41E0AD
:10239000BE01695D7E4FC3010E94750841E0CC58C3
:1023A000DE4F6881C457D140CB58DE4F7881C55786
:1023B000D140C3010E94750841E0B701C3010E94EA
:1023C000750882E0A82EB12C41E0B601C3010E943D
:1023D000750841E0B801C3010E94750841E0B101F0
:1023E000C3010E94750845E0B401C3010E9475084D
:1023F00041E0B101C3010E94750846E0652D742DCE
:10240000C3010E94750841E0B701C3010E9475082D
:10241000AA94AB2809F087C041E0B601C3010E942D
:10242000750841E0B801C3010E94750841E0BE0192
:10243000655B7E4FC3010E94750845E0BE0164558F
:102440007F4FC3010E94750841E0BE01695B7E4F6A
:10245000C3010E94750846E0652D742DC3010E94DA
:10246000750841E0B701C3010E94750841E0B6015B
:10247000C3010E94750849E0652D742DC3010E94B7
:10248000750841E0B701C3010E94750841E0B6013B
:10249000C3010E94750849E0652D742DC3010E9497
:1024A000750841E0B701C3010E94750841E0BE0113
:1024B000615A7E4FC3010E94750849E0BE016D5903
:1024C0007F4FC3010E94750841E0BE01655A7E4FEF
:1024D000C3010E94750841E0BE0163597E4FC301EC
:1024E0000E94750841E0BE016B577F4FC3010E94F7
:1024F0007508CA57DE4F0FB6F894DEBF0FBECDBFCA
:10250000DF91CF911F910F91FF90EF90DF90CF90CF
:10251000BF90AF909F908F907F906F905F904F9003
:102520003F902F900895AA24A394B12C4DCFFC0185
:1025300080E090E0A0E8BFE380879187A287B3871F
:1025400084879587A687B78784B5816A84BD85B55A
:10255000826085BD84B1886184B984B1846284B9A4
:1025600010821182128213821482158216821782BF
:102570000895AF92BF92CF92DF92EF92FF920F93A6
:102580001F93CF93DF93EC015A016B0179010E94F5
:102590009712C501D60188879987AA87BB87C8018A
:1025A000D7018C879D87AE87BF87DF91CF911F9121
:1025B0000F91FF90EF90DF90CF90BF90AF90089574
:1025C00014BC15BC17BC18BC0895CA01DB010097E8
:1025D000A105B10591F040E050E0BA01EFECF7E061
:1025E0003197F1F700C000004F5F5F4F6F4F7F4F93
:1025F00084179507A607B70789F70895EF92FF920A
:102600000F931F93CF93DF9300D000D000D0CDB7AE
:10261000DEB78D839E83CB01BA0179010E94011739
:10262000ED81FE81208531854285538569837A83DA
:102630008B839C8369817A818B819C810E948F1717
:1026400069837A838B839C8369817A818B819C8166
:102650000E94D21667BDB801C7010E940117ED8123
:10266000FE81248535854685578569837A838B83EA
:102670009C8369817A818B819C810E948F176983F9
:102680007A838B839C8369817A818B819C810E9470
:10269000D21668BD26960FB6F894DEBF0FBECDBF2A
:1026A000DF91CF911F910F91FF90EF9008950F93BD
:1026B0001F93FC014F3F51056105710529F020F082
:1026C0004FEF50E060E070E040835183628373839A
:1026D00044835583668377838A019B01CF010E94DF
:1026E000FE121F910F9108950F931F93FC014083D9
:1026F00051836283738344835583668377838A011E
:102700009B010E94FE121F910F91089585B18B7D50
:1027100085B9089585B1846285B908950F931F9393
:10272000FC01108211821282138214821582168299
:10273000178200E010E0980140E050E0BA010E94EA
:10274000FE121F910F9108950F931F93CF93DF9364
:10275000EC010E948E1390E080E0EFECF7E03197FF
:10276000F1F700C0000001968E3EF2E09F07A9F746
:1027700006E910E020E030E040E050E0BA01CE0190
:102780000E94FE1290E080E0EFECF7E03197F1F765
:1027900000C0000001968C36F7E09F07A9F7CE0134
:1027A0000E948E1390E080E0EFECF7E03197F1F7B4
:1027B00000C0000001968E3EF2E09F07A9F70C8151
:1027C0001D812E813F81488159816A817B81CE01A3
:1027D0000E94FE12DF91CF911F910F9108950F93E8
:1027E0001F93CF93DF93EC010E948E1390E080E063
:1027F000EFECF7E03197F1F700C0000001968E3E54
:10280000F2E09F07A9F700E010E0980146E950E0E8
:1028100060E070E0CE010E94FE1290E080E0EFECFC
:10282000F7E03197F1F700C0000001968C36F7E031
:102830009F07A9F7CE010E948E1390E080E0EFEC95
:10284000F7E03197F1F700C0000001968E3EF2E00C
:102850009F07A9F70C811D812E813F8148815981F5
:102860006A817B81CE010E94FE12DF91CF911F9180
:102870000F9108950F931F93CF93DF93EC010E9464
:102880008E1390E080E0EFECF7E03197F1F700C0B5
:10289000000001968E3EF2E09F07A9F700E010E0ED
:1028A000980146E950E060E070E0CE010E94FE121F
:1028B00090E080E0EFECF7E03197F1F700C0000026
:1028C00001968A35FAE09F07A9F7CE010E948E1380
:1028D00090E080E0EFECF7E03197F1F700C0000006
:1028E00001968E3EF2E09F07A9F70C811D812E8193
:1028F0003F81488159816A817B81CE010E94FE120D
:10290000DF91CF911F910F9108951092C5008FEC28
:102910008093C4001092C000E1ECF0E080818061FF
:102920008083808188608083E2ECF0E08081826037
:10293000808380818460808308958091C00085FFBA
:10294000FCCF6093C60008958091C00087FFFCCF44
:102950008091C6000895CF93DF93EC010E940E157D
:1029600082E08983CE01DF91CF910C9485140F937F
:102970001F93CF93DF93182F092FEB0169916111FA
:1029800005C0DF91CF911F910F910895812F902F56
:102990000E949D14F3CFEF92FF920F931F93CF935A
:1029A000DF9300D000D00F92CDB7DEB78C011F921D
:1029B0006F9382EA92E09F938F93CE0101967C0100
:1029C0009F938F930E94FC17B701C8010E94B71410
:1029D0000F900F900F900F900F900F900F900F90FF
:1029E0000F900F900F90DF91CF911F910F91FF905B
:1029F000EF9008950C94B714CF93DF93EC0160E04F
:102A00000E9417152981BC0102C0769567952A9509
:102A1000E2F7CE01DF91CF910C949D1410927C00CF
:102A200086E880937A00089510927A000895809144
:102A30007C00807E80937C0080917C006770682B96
:102A400060937C0080917A00806480937A0080910A
:102A50007A0084FFFCCF80917A00806180937A00B5
:102A6000209178008091790090E0982F8827820F3C
:102A7000911D0895CDB7DEB7CB5ED1090FB6F8949E
:102A8000DEBF0FBECDBF8E010F5F1F4FC8010E947A
:102A90007700CE01C5960E945B02CE01C5960E94CA
:102AA0007D02C8010E94A0057E0121EEE20EF11C0C
:102AB000CE01C296AE014A515F4F9E012F5C3F4F3F
:102AC000942E852E722E632E5C01C7010E94360162
:102AD00067018091A6028823F1F08091A6028823E5
:102AE00019F1C6010E948301C8010E94AE008FEF58
:102AF00093ED20E3815090402040E1F700C00000BA
:102B0000B801C8010E94F200692D782D872D962DFD
:102B10000E945703DACFC8010E949E008111DDCFC9
:102B2000C6010E943601D5CFC8010E949E008111C6
:102B300017C0C6010E948301C8010E949E00811136
:102B4000FBCFC8010E949E008111BFCF980141E0D8
:102B500061E0C5010E94A208C8010E94CD00B5CF66
:102B60008091A602882309F4B0CFC8010E949E007C
:102B7000ACCF991B79E004C0991F961708F0961BFB
:102B8000881F7A95C9F78095089597FB072E16F44C
:102B9000009407D077FD09D00E94DF1507FC05D00F
:102BA0003EF4909581959F4F0895709561957F4F64
:102BB0000895EE0FFF1F0590F491E02D0994AA1BD4
:102BC000BB1B51E107C0AA1FBB1FA617B70710F018
:102BD000A61BB70B881F991F5A95A9F7809590954A
:102BE000BC01CD0108955058BB27AA270E940B169F
:102BF0000C9455170E94471738F00E944E1720F08A
:102C000039F49F3F19F426F40C9444170EF4E09520
:102C1000E7FB0C943E17E92F0E94661758F3BA178A
:102C2000620773078407950720F079F4A6F50C94E2
:102C300088170EF4E0950B2EBA2FA02D0B01B901C9
:102C400090010C01CA01A0011124FF27591B99F022
:102C5000593F50F4503E68F11A16F040A22F232F2E
:102C6000342F4427585FF3CF469537952795A7957E
:102C7000F0405395C9F77EF41F16BA0B620B730B25
:102C8000840BBAF09150A1F0FF0FBB1F661F771F96
:102C9000881FC2F70EC0BA0F621F731F841F48F44B
:102CA000879577956795B795F7959E3F08F0B0CFD4
:102CB0009395880F08F09927EE0F979587950895BB
:102CC0000E9474160C9455170E944E1758F00E94DB
:102CD000471740F029F45F3F29F00C943E1751113B
:102CE0000C9489170C9444170E94661768F3992373
:102CF000B1F3552391F3951B550BBB27AA276217F8
:102D00007307840738F09F5F5F4F220F331F441F04
:102D1000AA1FA9F335D00E2E3AF0E0E832D0915038
:102D20005040E695001CCAF72BD0FE2F29D0660F25
:102D3000771F881FBB1F261737074807AB07B0E868
:102D400009F0BB0B802DBF01FF2793585F4F3AF06E
:102D50009E3F510578F00C943E170C9489175F3F05
:102D6000E4F3983ED4F3869577956795B795F795F4
:102D70009F5FC9F7880F911D9695879597F90895DC
:102D8000E1E0660F771F881FBB1F62177307840778
:102D9000BA0720F0621B730B840BBA0BEE1F88F787
:102DA000E09508950E946E1788F09F5798F0B92F0C
:102DB0009927B751B0F0E1F0660F771F881F991F70
:102DC0001AF0BA95C9F714C0B13091F00E94881773
:102DD000B1E008950C948817672F782F8827B85F83
:102DE00039F0B93FCCF3869577956795B395D9F7C8
:102DF0003EF490958095709561957F4F8F4F9F4FD2
:102E00000895E89409C097FB3EF4909580957095DD
:102E100061957F4F8F4F9F4F9923A9F0F92F96E926
:102E2000BB279395F695879577956795B795F1119B
:102E3000F8CFFAF4BB0F11F460FF1BC06F5F7F4F38
:102E40008F4F9F4F16C0882311F096E911C077234A
:102E500021F09EE8872F762F05C0662371F096E853
:102E6000862F70E060E02AF09A95660F771F881F22
:102E7000DAF7880F9695879597F9089597F99F67E0
:102E800080E870E060E008959FEF80EC08950024F2
:102E90000A941616170618060906089500240A94BF
:102EA00012161306140605060895092E0394000C45
:102EB00011F4882352F0BB0F40F4BF2B11F460FFD4
:102EC00004C06F5F7F4F8F4F9F4F089557FD9058FD
:102ED000440F551F59F05F3F71F04795880F97FBDE
:102EE000991F61F09F3F79F0879508951216130698
:102EF0001406551FF2CF4695F1DF08C016161706C7
:102F00001806991FF1CF86957105610508940895FB
:102F1000E894BB2766277727CB0197F908950E948D
:102F2000A2170C9455170E94471738F00E944E17AD
:102F300020F0952311F00C943E170C9444171124A3
:102F40000C9489170E94661770F3959FC1F3950F33
:102F500050E0551F629FF001729FBB27F00DB11D1D
:102F6000639FAA27F00DB11DAA1F649F6627B00DAD
:102F7000A11D661F829F2227B00DA11D621F739F96
:102F8000B00DA11D621F839FA00D611D221F749FA4
:102F90003327A00D611D231F849F600D211D822FEB
:102FA000762F6A2F11249F5750409AF0F1F0882312
:102FB0004AF0EE0FFF1FBB1F661F771F881F91503F
:102FC0005040A9F79E3F510580F00C943E170C9499
:102FD00089175F3FE4F3983ED4F38695779567951C
:102FE000B795F795E7959F5FC1F7FE2B880F911D69
:102FF0009695879597F90895AEE0B0E0E2E0F8E1A4
:103000000C94A41A0D891E8986E08C831A83098387
:103010008FEF9FE79E838D83AE01475E5F4F6F8981
:10302000788DCE0101960E941F182F813885020FDE
:10303000131FF80110822E96E4E00C94C01AAFE042
:10304000B0E0E5E2F8E10C94961A7C013B018A01BC
:10305000DC0117961C921E92169713968C9181FF95
:10306000BEC19AE0292EFE0131964F01D701139679
:103070009C91F30193FD859193FF81913F018823FA
:1030800009F444C1853239F493FD859193FF819110
:103090003F01853229F4B70190E00E94081AE6CF7B
:1030A000B12C412C512CBFE1B51538F08B3209F110
:1030B00088F4803201F1833221F157FC3AC020EDCF
:1030C000280F2A3040F556FE1FC0B29C200D112457
:1030D000B22E06C08D3291F0803379F7689450F8A3
:1030E000F30193FD859193FF81913F018111DBCF26
:1030F00020C0689451F8689452F8F2CF689453F85D
:10310000EFCF689454F8ECCF429C200D1124422E4E
:10311000689455F8E5CF8E3229F456FCF7C06894D0
:1031200056F8DECF8C3619F4689457F8D9CF883624
:10313000B9F2982F9F7D95549330C0F0833681F17A
:103140008337A1F1833509F05BC0D801CD90DD90C4
:103150008D016B2D70E056FC02C06FEF7FEFC60152
:103160000E94F2195C01689457F80AC00C5F1F4F67
:10317000EFE3E983AA24A394B12C6401E89457F8FF
:1031800053FE29C0342CA114B10451F5332009F4A5
:103190006DCFB70180E290E00E94081A3A94F6CF12
:1031A000D8018C9189830E5F1F4FE4CFF801C19045
:1031B000D1908F016B2D70E056FC02C06FEF7FEF56
:1031C000C6010E94FD195C01D9CFB70180E290E0F1
:1031D0000E94081A4A944A141B0409F0B0F7D2CF8F
:1031E000F60157FC859157FE81916F01B70190E080
:1031F0000E94081A31103A94B1E0AB1AB108C3CF5B
:10320000843619F0893609F071C0F80157FE67C09D
:1032100061917191819191918F01E52DEF76DE2E73
:1032200097FF09C090958095709561957F4F8F4F5E
:103230009F4F6894D7F82AE030E0A4010E94381A22
:10324000C82EC818AC2C5D2CD6FE0CC0E89450F8E3
:10325000CB1440F4D4FE05C0D2FC03C05D2D5E7ECD
:10326000552EAB2C54FE93C0FE01EC0DF11D808158
:10327000803309F085C0652D697E562E752D7870D6
:10328000372E53FC93C050FE8DC0BC2CA41410F4F8
:10329000B40CBA1854FE90C0B70180E390E00E94CD
:1032A000081A52FE07C088E751FC88E590E0B70194
:1032B0000E94081ACB1408F48BC0CA94D12C8FEF4B
:1032C000C81AD80AC80CD91CD6018E916D01B70155
:1032D00090E00E94081A8C149D04B1F757CF6191B9
:1032E0007191072E000C880B990B96CFD52CE89482
:1032F000D4F82AE0853729F1F52DF97FDF2E8037C4
:10330000A1F058F48835A1F08F36D1F0F70186810D
:1033100097812F96E2E10C94B21A8837B9F7D4FE60
:1033200002C06894D2F820E10CC06894D4F8F7CFBA
:1033300054FE03C02F2F2660D22E20E132E002C0BF
:1033400028E030E0F801D7FE15C04191519161911C
:1033500071914C875D876E877F878F01A4016C8593
:103360007D858E859F850E94381AC82EC818E894DE
:10337000D7F868CF81919191AC0170E060E0E9CF1E
:1033800052FC02C0A3947ACFA394A39477CF852D47
:10339000867809F473CFF6CFB70180E290E00E94FF
:1033A000081AA394A414C0F3312C74CF342C3A1807
:1033B000A41408F46FCFF8CF852D867809F47ACF5E
:1033C0008BE251FE80E257FC8DE2B70190E070CFB6
:1033D000B70180E390E00E94081ABA946BCF8FEF98
:1033E0009FEF97CFFC010590615070400110D8F716
:1033F000809590958E0F9F1F0895FC01615070403D
:1034000001900110D8F7809590958E0F9F1F089519
:103410000F931F93CF93DF93182F092FEB018B810D
:1034200081FD09C01FEF0FEF812F902FDF91CF910A
:103430001F910F91089582FF14C02E813F818C81CE
:103440009D81281739073CF4E881F981CF01019665
:103450009983888310838E819F8101969F838E83B9
:10346000E3CFE885F985812F0995892BA1F3DACF80
:10347000FA01AA27283051F1203181F1E8946F93A5
:103480006E7F6E5F7F4F8F4F9F4FAF4FB1E03ED04B
:10349000B4E03CD0670F781F891F9A1FA11D680FE9
:1034A000791F8A1F911DA11D6A0F711D811D911D1C
:1034B000A11D20D009F468943F912AE0269F112491
:1034C0003019305D3193DEF6CF010895462F4770F5
:1034D000405D4193B3E00FD0C9F7F6CF462F4F7050
:1034E000405D4A3318F0495D31FD4052419302D0AE
:1034F000A9F7EACFB4E0A695979587957795679554
:10350000BA95C9F700976105710508959B01AC0153
:103510000A2E06945795479537952795BA95C9F77A
:10352000620F731F841F951FA01D08952F923F9255
:103530004F925F926F927F928F929F92AF92BF92C3
:10354000CF92DF92EF92FF920F931F93CF93DF936F
:10355000CDB7DEB7CA1BDB0B0FB6F894DEBF0FBECC
:10356000CDBF09942A88398848885F846E847D8419
:103570008C849B84AA84B984C884DF80EE80FD801B
:103580000C811B81AA81B981CE0FD11D0FB6F89491
:10359000DEBF0FBECDBFED010895F894FFCF130637
:1035A000DF051306E905DF052306DF050906DF054C
:1035B000DF05DF05F605DF05DF05DF05DF05DF05D4
:1035C000DF05DF052D06DF05DF05DF05F605DF0575
:1035D0002D06DF052D06DF052D06CD07E606F606CE
:1035E000E606B606B805F6069107E006B805B80582
:1035F000B805C306B805B805B805D606B805B805B8
:0C360000B8055F06B805B805B805C3069C
:10360C000000DC427B14E942A4F0F6425CCF02439A
:10361C000A970A437BD412435C8F1B435CCF244331
:10362C00299C2E43000039430000444366A64F43B7
:10363C0000005C437B146943A4F07643A4D082431E
:10364C000A978A437BD49243A4909B43A4D0A4436F
:10365C00719DAE43B8FEB8430000C44366A6CF4389
:10366C000000DC437B14E943A4F0F64300D0024491
:10367C00AE970A441FD5124400901B44A4D0244496
:10368C00719D2E445CFF38445CFF43440AA74F44B1
:10369C0000005C4440003B003C0040003B00BC028E
:1036AC00BC02A203BC02BC0250726F647569742028
:1036BC007061723A2047656172203500E2948C008B
:1036CC00E29480E29480E29480E29480E29480E23E
:1036DC009480E29480E29480E29480E29480E2947C
:1036EC008000E294900A00E2948200E294820A0044
:1036FC00E2949400E2949800E2948F00E29481E2C8
:10370C009481E29481E29481E2948100E2949300AA
:10371C00E2948300E2949700E2949B00E29590E29D
:10372C009590E29590E29590E29590E2959000E26A
:10373C0095910020202020202020202020202020B7
:10374C00202020202020202020202020202020206D
:10375C00202020202020202020202020202020205D
:10376C0020202000E295A300E2959400E2959700BA
:10377C00E295A600205F5F5F20002F2020205C00D8
:10378C007C2020207C00E29693202020E29693005F
:10379C005C5F5F5F2F00E2959A00E2959D00E295D9
:0637AC00A90025640000E5
:00000001FF
